{
  "address": "0x4A2bA922052bA54e29c5417bC979Daaf7D5Fe4f4",
  "abi": [
    {
      "inputs": [
        {
          "internalType": "string",
          "name": "_message",
          "type": "string"
        }
      ],
      "stateMutability": "nonpayable",
      "type": "constructor"
    },
    {
      "inputs": [],
      "name": "greet",
      "outputs": [
        {
          "internalType": "string",
          "name": "",
          "type": "string"
        }
      ],
      "stateMutability": "view",
      "type": "function"
    }
  ],
  "transactionHash": "0x023ef0674c49c26215ebd64c5697c8dadc9787dc5398cff4bd71617c62b618c4",
  "args": [
    "test"
  ],
  "numDeployments": 1,
  "solcInputHash": "ef86abb907d0186b5bc77dc27141ef38",
  "bytecode": "0x608060405234801561001057600080fd5b5060405161050a38038061050a83398181016040528101906100329190610162565b806000908051906020019061004892919061004f565b5050610239565b828054600181600116156101000203166002900490600052602060002090601f01602090048101928261008557600085556100cc565b82601f1061009e57805160ff19168380011785556100cc565b828001600101855582156100cc579182015b828111156100cb5782518255916020019190600101906100b0565b5b5090506100d991906100dd565b5090565b5b808211156100f65760008160009055506001016100de565b5090565b600061010d610108846101d4565b6101a3565b90508281526020810184848401111561012557600080fd5b610130848285610204565b509392505050565b600082601f83011261014957600080fd5b81516101598482602086016100fa565b91505092915050565b60006020828403121561017457600080fd5b600082015167ffffffffffffffff81111561018e57600080fd5b61019a84828501610138565b91505092915050565b6000604051905081810181811067ffffffffffffffff821117156101ca576101c9610237565b5b8060405250919050565b600067ffffffffffffffff8211156101ef576101ee610237565b5b601f19601f8301169050602081019050919050565b60005b83811015610222578082015181840152602081019050610207565b83811115610231576000848401525b50505050565bfe5b6102c2806102486000396000f3fe608060405234801561001057600080fd5b506004361061002b5760003560e01c8063cfae321714610030575b600080fd5b61003861004e565b60405161004591906101ea565b60405180910390f35b6060600060405160200161006291906101bd565b604051602081830303815290604052905090565b600061008182610221565b61008b818561022c565b935061009b818560208601610248565b6100a48161027b565b840191505092915050565b6000815460018116600081146100cc57600181146100f157610135565b607f60028304166100dd818761023d565b955060ff1983168652808601935050610135565b600282046100ff818761023d565b955061010a8561020c565b60005b8281101561012c5781548189015260018201915060208101905061010d565b82880195505050505b505092915050565b600061014a60058361023d565b91507f48656c6c6f0000000000000000000000000000000000000000000000000000006000830152600582019050919050565b600061018a60018361023d565b91507f20000000000000000000000000000000000000000000000000000000000000006000830152600182019050919050565b60006101c88261013d565b91506101d38261017d565b91506101df82846100af565b915081905092915050565b600060208201905081810360008301526102048184610076565b905092915050565b60008190508160005260206000209050919050565b600081519050919050565b600082825260208201905092915050565b600081905092915050565b60005b8381101561026657808201518184015260208101905061024b565b83811115610275576000848401525b50505050565b6000601f19601f830116905091905056fea264697066735822122044fe07dec88bbf8f20a14fd65459147cf23a7c6051e41e8ad353d17e2436f25864736f6c63430007060033",
  "devdoc": {
    "kind": "dev",
    "methods": {},
    "version": 1
  },
  "userdoc": {
    "kind": "user",
    "methods": {},
    "version": 1
  },
  "storageLayout": {
    "storage": [
      {
        "astId": 363,
        "contract": "contracts/HelloWorld.sol:HelloWorld",
        "label": "message",
        "offset": 0,
        "slot": "0",
        "type": "t_string_storage"
      }
    ],
    "types": {
      "t_string_storage": {
        "encoding": "bytes",
        "label": "string",
        "numberOfBytes": "32"
      }
    }
  }
}